{"abi":[{"type":"constructor","inputs":[{"name":"_name","type":"string","internalType":"string"},{"name":"_symbol","type":"string","internalType":"string"},{"name":"_initialOwner","type":"address","internalType":"address"}],"stateMutability":"nonpayable"},{"type":"function","name":"approve","inputs":[{"name":"to","type":"address","internalType":"address"},{"name":"tokenId","type":"uint256","internalType":"uint256"}],"outputs":[],"stateMutability":"nonpayable"},{"type":"function","name":"balanceOf","inputs":[{"name":"owner","type":"address","internalType":"address"}],"outputs":[{"name":"","type":"uint256","internalType":"uint256"}],"stateMutability":"view"},{"type":"function","name":"burn","inputs":[{"name":"tokenId","type":"uint256","internalType":"uint256"}],"outputs":[],"stateMutability":"nonpayable"},{"type":"function","name":"getApproved","inputs":[{"name":"tokenId","type":"uint256","internalType":"uint256"}],"outputs":[{"name":"","type":"address","internalType":"address"}],"stateMutability":"view"},{"type":"function","name":"isApprovedForAll","inputs":[{"name":"owner","type":"address","internalType":"address"},{"name":"operator","type":"address","internalType":"address"}],"outputs":[{"name":"","type":"bool","internalType":"bool"}],"stateMutability":"view"},{"type":"function","name":"mint","inputs":[{"name":"to","type":"address","internalType":"address"},{"name":"uri","type":"string","internalType":"string"}],"outputs":[{"name":"","type":"uint256","internalType":"uint256"}],"stateMutability":"nonpayable"},{"type":"function","name":"name","inputs":[],"outputs":[{"name":"","type":"string","internalType":"string"}],"stateMutability":"view"},{"type":"function","name":"owner","inputs":[],"outputs":[{"name":"","type":"address","internalType":"address"}],"stateMutability":"view"},{"type":"function","name":"ownerOf","inputs":[{"name":"tokenId","type":"uint256","internalType":"uint256"}],"outputs":[{"name":"","type":"address","internalType":"address"}],"stateMutability":"view"},{"type":"function","name":"renounceOwnership","inputs":[],"outputs":[],"stateMutability":"nonpayable"},{"type":"function","name":"safeTransferFrom","inputs":[{"name":"from","type":"address","internalType":"address"},{"name":"to","type":"address","internalType":"address"},{"name":"tokenId","type":"uint256","internalType":"uint256"}],"outputs":[],"stateMutability":"nonpayable"},{"type":"function","name":"safeTransferFrom","inputs":[{"name":"from","type":"address","internalType":"address"},{"name":"to","type":"address","internalType":"address"},{"name":"tokenId","type":"uint256","internalType":"uint256"},{"name":"data","type":"bytes","internalType":"bytes"}],"outputs":[],"stateMutability":"nonpayable"},{"type":"function","name":"setApprovalForAll","inputs":[{"name":"operator","type":"address","internalType":"address"},{"name":"approved","type":"bool","internalType":"bool"}],"outputs":[],"stateMutability":"nonpayable"},{"type":"function","name":"supportsInterface","inputs":[{"name":"interfaceId","type":"bytes4","internalType":"bytes4"}],"outputs":[{"name":"","type":"bool","internalType":"bool"}],"stateMutability":"view"},{"type":"function","name":"symbol","inputs":[],"outputs":[{"name":"","type":"string","internalType":"string"}],"stateMutability":"view"},{"type":"function","name":"tokenByIndex","inputs":[{"name":"index","type":"uint256","internalType":"uint256"}],"outputs":[{"name":"","type":"uint256","internalType":"uint256"}],"stateMutability":"view"},{"type":"function","name":"tokenOfOwnerByIndex","inputs":[{"name":"owner","type":"address","internalType":"address"},{"name":"index","type":"uint256","internalType":"uint256"}],"outputs":[{"name":"","type":"uint256","internalType":"uint256"}],"stateMutability":"view"},{"type":"function","name":"tokenURI","inputs":[{"name":"tokenId","type":"uint256","internalType":"uint256"}],"outputs":[{"name":"","type":"string","internalType":"string"}],"stateMutability":"view"},{"type":"function","name":"totalSupply","inputs":[],"outputs":[{"name":"","type":"uint256","internalType":"uint256"}],"stateMutability":"view"},{"type":"function","name":"transferFrom","inputs":[{"name":"from","type":"address","internalType":"address"},{"name":"to","type":"address","internalType":"address"},{"name":"tokenId","type":"uint256","internalType":"uint256"}],"outputs":[],"stateMutability":"nonpayable"},{"type":"function","name":"transferOwnership","inputs":[{"name":"newOwner","type":"address","internalType":"address"}],"outputs":[],"stateMutability":"nonpayable"},{"type":"event","name":"Approval","inputs":[{"name":"owner","type":"address","indexed":true,"internalType":"address"},{"name":"approved","type":"address","indexed":true,"internalType":"address"},{"name":"tokenId","type":"uint256","indexed":true,"internalType":"uint256"}],"anonymous":false},{"type":"event","name":"ApprovalForAll","inputs":[{"name":"owner","type":"address","indexed":true,"internalType":"address"},{"name":"operator","type":"address","indexed":true,"internalType":"address"},{"name":"approved","type":"bool","indexed":false,"internalType":"bool"}],"anonymous":false},{"type":"event","name":"BatchMetadataUpdate","inputs":[{"name":"_fromTokenId","type":"uint256","indexed":false,"internalType":"uint256"},{"name":"_toTokenId","type":"uint256","indexed":false,"internalType":"uint256"}],"anonymous":false},{"type":"event","name":"MetadataUpdate","inputs":[{"name":"_tokenId","type":"uint256","indexed":false,"internalType":"uint256"}],"anonymous":false},{"type":"event","name":"OwnershipTransferred","inputs":[{"name":"previousOwner","type":"address","indexed":true,"internalType":"address"},{"name":"newOwner","type":"address","indexed":true,"internalType":"address"}],"anonymous":false},{"type":"event","name":"Transfer","inputs":[{"name":"from","type":"address","indexed":true,"internalType":"address"},{"name":"to","type":"address","indexed":true,"internalType":"address"},{"name":"tokenId","type":"uint256","indexed":true,"internalType":"uint256"}],"anonymous":false},{"type":"error","name":"ERC721EnumerableForbiddenBatchMint","inputs":[]},{"type":"error","name":"ERC721IncorrectOwner","inputs":[{"name":"sender","type":"address","internalType":"address"},{"name":"tokenId","type":"uint256","internalType":"uint256"},{"name":"owner","type":"address","internalType":"address"}]},{"type":"error","name":"ERC721InsufficientApproval","inputs":[{"name":"operator","type":"address","internalType":"address"},{"name":"tokenId","type":"uint256","internalType":"uint256"}]},{"type":"error","name":"ERC721InvalidApprover","inputs":[{"name":"approver","type":"address","internalType":"address"}]},{"type":"error","name":"ERC721InvalidOperator","inputs":[{"name":"operator","type":"address","internalType":"address"}]},{"type":"error","name":"ERC721InvalidOwner","inputs":[{"name":"owner","type":"address","internalType":"address"}]},{"type":"error","name":"ERC721InvalidReceiver","inputs":[{"name":"receiver","type":"address","internalType":"address"}]},{"type":"error","name":"ERC721InvalidSender","inputs":[{"name":"sender","type":"address","internalType":"address"}]},{"type":"error","name":"ERC721NonexistentToken","inputs":[{"name":"tokenId","type":"uint256","internalType":"uint256"}]},{"type":"error","name":"ERC721OutOfBoundsIndex","inputs":[{"name":"owner","type":"address","internalType":"address"},{"name":"index","type":"uint256","internalType":"uint256"}]},{"type":"error","name":"NFToken__MintToZeroAddress","inputs":[]},{"type":"error","name":"NFToken__TokenDoesNotExist","inputs":[{"name":"tokenId","type":"uint256","internalType":"uint256"}]},{"type":"error","name":"OwnableInvalidOwner","inputs":[{"name":"owner","type":"address","internalType":"address"}]},{"type":"error","name":"OwnableUnauthorizedAccount","inputs":[{"name":"account","type":"address","internalType":"address"}]}],"bytecode":{"object":"0x608060405234801561000f575f5ffd5b50604051611b6e380380611b6e83398101604081905261002e9161017f565b8083835f61003c8382610288565b5060016100498282610288565b5050506001600160a01b03811661007957604051631e4fbdf760e01b81525f600482015260240160405180910390fd5b61008281610091565b50506001600c55506103429050565b600b80546001600160a01b038381166001600160a01b0319831681179093556040519116919082907f8be0079c531659141344cd1fd0a4f28419497f9722a3daafe3b4186f6b6457e0905f90a35050565b634e487b7160e01b5f52604160045260245ffd5b5f82601f830112610105575f5ffd5b81516001600160401b0381111561011e5761011e6100e2565b604051601f8201601f19908116603f011681016001600160401b038111828210171561014c5761014c6100e2565b604052818152838201602001851015610163575f5ffd5b8160208501602083015e5f918101602001919091529392505050565b5f5f5f60608486031215610191575f5ffd5b83516001600160401b038111156101a6575f5ffd5b6101b2868287016100f6565b602086015190945090506001600160401b038111156101cf575f5ffd5b6101db868287016100f6565b604086015190935090506001600160a01b03811681146101f9575f5ffd5b809150509250925092565b600181811c9082168061021857607f821691505b60208210810361023657634e487b7160e01b5f52602260045260245ffd5b50919050565b601f82111561028357805f5260205f20601f840160051c810160208510156102615750805b601f840160051c820191505b81811015610280575f815560010161026d565b50505b505050565b81516001600160401b038111156102a1576102a16100e2565b6102b5816102af8454610204565b8461023c565b6020601f8211600181146102e7575f83156102d05750848201515b5f19600385901b1c1916600184901b178455610280565b5f84815260208120601f198516915b8281101561031657878501518255602094850194600190920191016102f6565b508482101561033357868401515f19600387901b60f8161c191681555b50505050600190811b01905550565b61181f8061034f5f395ff3fe608060405234801561000f575f5ffd5b5060043610610132575f3560e01c80636352211e116100b4578063a22cb46511610079578063a22cb4651461026b578063b88d4fde1461027e578063c87b56dd14610291578063d0def521146102a4578063e985e9c5146102b7578063f2fde38b146102ca575f5ffd5b80636352211e1461022457806370a0823114610237578063715018a61461024a5780638da5cb5b1461025257806395d89b4114610263575f5ffd5b806323b872dd116100fa57806323b872dd146101c55780632f745c59146101d857806342842e0e146101eb57806342966c68146101fe5780634f6ccce714610211575f5ffd5b806301ffc9a71461013657806306fdde031461015e578063081812fc14610173578063095ea7b31461019e57806318160ddd146101b3575b5f5ffd5b6101496101443660046112f7565b6102dd565b60405190151581526020015b60405180910390f35b6101666102ed565b6040516101559190611340565b610186610181366004611352565b61037c565b6040516001600160a01b039091168152602001610155565b6101b16101ac366004611384565b6103a3565b005b6008545b604051908152602001610155565b6101b16101d33660046113ac565b6103b2565b6101b76101e6366004611384565b610440565b6101b16101f93660046113ac565b6104a3565b6101b161020c366004611352565b6104c2565b6101b761021f366004611352565b6104cd565b610186610232366004611352565b610522565b6101b76102453660046113e6565b61052c565b6101b1610571565b600b546001600160a01b0316610186565b610166610584565b6101b16102793660046113ff565b610593565b6101b161028c3660046114c3565b61059e565b61016661029f366004611352565b6105b6565b6101b76102b236600461153a565b6105f3565b6101496102c5366004611598565b610654565b6101b16102d83660046113e6565b610681565b5f6102e7826106be565b92915050565b60605f80546102fb906115c9565b80601f0160208091040260200160405190810160405280929190818152602001828054610327906115c9565b80156103725780601f1061034957610100808354040283529160200191610372565b820191905f5260205f20905b81548152906001019060200180831161035557829003601f168201915b5050505050905090565b5f610386826106e2565b505f828152600460205260409020546001600160a01b03166102e7565b6103ae82823361071a565b5050565b6001600160a01b0382166103e057604051633250574960e11b81525f60048201526024015b60405180910390fd5b5f6103ec838333610727565b9050836001600160a01b0316816001600160a01b03161461043a576040516364283d7b60e01b81526001600160a01b03808616600483015260248201849052821660448201526064016103d7565b50505050565b5f61044a8361052c565b821061047b5760405163295f44f760e21b81526001600160a01b0384166004820152602481018390526044016103d7565b506001600160a01b03919091165f908152600660209081526040808320938352929052205490565b6104bd83838360405180602001604052805f81525061059e565b505050565b6103ae5f8233610727565b5f6104d760085490565b82106104ff5760405163295f44f760e21b81525f6004820152602481018390526044016103d7565b6008828154811061051257610512611601565b905f5260205f2001549050919050565b5f6102e7826106e2565b5f6001600160a01b038216610556576040516322718ad960e21b81525f60048201526024016103d7565b506001600160a01b03165f9081526003602052604090205490565b61057961073b565b6105825f610768565b565b6060600180546102fb906115c9565b6103ae3383836107b9565b6105a98484846103b2565b61043a3385858585610880565b606060018210806105c95750600c548210155b156105ea57604051632aabf1db60e01b8152600481018390526024016103d7565b6102e7826109a8565b5f6105fc61073b565b6001600160a01b03831661062357604051635aab515b60e01b815260040160405180910390fd5b600c80549081905f61063483611629565b91905055506106438482610a21565b61064d8184610a3a565b9392505050565b6001600160a01b039182165f90815260056020908152604080832093909416825291909152205460ff1690565b61068961073b565b6001600160a01b0381166106b257604051631e4fbdf760e01b81525f60048201526024016103d7565b6106bb81610768565b50565b5f6001600160e01b03198216632483248360e11b14806102e757506102e782610a89565b5f818152600260205260408120546001600160a01b0316806102e757604051637e27328960e01b8152600481018490526024016103d7565b6104bd8383836001610aad565b5f610733848484610bb1565b949350505050565b600b546001600160a01b031633146105825760405163118cdaa760e01b81523360048201526024016103d7565b600b80546001600160a01b038381166001600160a01b0319831681179093556040519116919082907f8be0079c531659141344cd1fd0a4f28419497f9722a3daafe3b4186f6b6457e0905f90a35050565b6001600160a01b0383166107e25760405163a9fbf51f60e01b81525f60048201526024016103d7565b6001600160a01b03821661081457604051630b61174360e31b81526001600160a01b03831660048201526024016103d7565b6001600160a01b038381165f81815260056020908152604080832094871680845294825291829020805460ff191686151590811790915591519182527f17307eab39ab6107e8899845ad3d59bd9653f200f220920489ca2b5937696c31910160405180910390a3505050565b6001600160a01b0383163b156109a157604051630a85bd0160e11b81526001600160a01b0384169063150b7a02906108c2908890889087908790600401611641565b6020604051808303815f875af19250505080156108fc575060408051601f3d908101601f191682019092526108f99181019061167d565b60015b610963573d808015610929576040519150601f19603f3d011682016040523d82523d5f602084013e61092e565b606091505b5080515f0361095b57604051633250574960e11b81526001600160a01b03851660048201526024016103d7565b805160208201fd5b6001600160e01b03198116630a85bd0160e11b1461099f57604051633250574960e11b81526001600160a01b03851660048201526024016103d7565b505b5050505050565b60606109b3826106e2565b505f6109c960408051602081019091525f815290565b90505f6109d584610c7c565b905081515f036109e6579392505050565b805115610a18578181604051602001610a009291906116af565b60405160208183030381529060405292505050919050565b61073384610d1b565b6103ae828260405180602001604052805f815250610d8b565b5f828152600a60205260409020610a518282611707565b506040518281527ff8e1a15aba9398e019f0b49df1a4fde98ee17ae345cb5f6b5e2c27f5033e8ce79060200160405180910390a15050565b5f6001600160e01b0319821663780e9d6360e01b14806102e757506102e782610da2565b8080610ac157506001600160a01b03821615155b15610b82575f610ad0846106e2565b90506001600160a01b03831615801590610afc5750826001600160a01b0316816001600160a01b031614155b8015610b0f5750610b0d8184610654565b155b15610b385760405163a9fbf51f60e01b81526001600160a01b03841660048201526024016103d7565b8115610b805783856001600160a01b0316826001600160a01b03167f8c5be1e5ebec7d5bd14f71427d1e84f3dd0314c0f7b2291e5b200ac8c7c3b92560405160405180910390a45b505b50505f90815260046020526040902080546001600160a01b0319166001600160a01b0392909216919091179055565b5f5f610bbe858585610df1565b90506001600160a01b038116610c1a57610c1584600880545f838152600960205260408120829055600182018355919091527ff3f7a9fe364faab93b216da50a3214154f22a0a2b415b23a84c8169e8b636ee30155565b610c3d565b846001600160a01b0316816001600160a01b031614610c3d57610c3d8185610ee3565b6001600160a01b038516610c5957610c5484610f60565b610733565b846001600160a01b0316816001600160a01b031614610733576107338585611007565b5f818152600a60205260409020805460609190610c98906115c9565b80601f0160208091040260200160405190810160405280929190818152602001828054610cc4906115c9565b8015610d0f5780601f10610ce657610100808354040283529160200191610d0f565b820191905f5260205f20905b815481529060010190602001808311610cf257829003601f168201915b50505050509050919050565b6060610d26826106e2565b505f610d3c60408051602081019091525f815290565b90505f815111610d5a5760405180602001604052805f81525061064d565b80610d6484611055565b604051602001610d759291906116af565b6040516020818303038152906040529392505050565b610d9583836110e5565b6104bd335f858585610880565b5f6001600160e01b031982166380ac58cd60e01b1480610dd257506001600160e01b03198216635b5e139f60e01b145b806102e757506301ffc9a760e01b6001600160e01b03198316146102e7565b5f828152600260205260408120546001600160a01b0390811690831615610e1d57610e1d818486611146565b6001600160a01b03811615610e5757610e385f855f5f610aad565b6001600160a01b0381165f90815260036020526040902080545f190190555b6001600160a01b03851615610e85576001600160a01b0385165f908152600360205260409020805460010190555b5f8481526002602052604080822080546001600160a01b0319166001600160a01b0389811691821790925591518793918516917fddf252ad1be2c89b69c2b068fc378daa952ba7f163c4a11628f55a4df523b3ef91a4949350505050565b5f610eed8361052c565b5f838152600760209081526040808320546001600160a01b0388168452600690925290912091925090818314610f42575f83815260208281526040808320548584528184208190558352600790915290208290555b5f938452600760209081526040808620869055938552525081205550565b6008545f90610f71906001906117c2565b5f8381526009602052604081205460088054939450909284908110610f9857610f98611601565b905f5260205f20015490508060088381548110610fb757610fb7611601565b5f918252602080832090910192909255828152600990915260408082208490558582528120556008805480610fee57610fee6117d5565b600190038181905f5260205f20015f9055905550505050565b5f60016110138461052c565b61101d91906117c2565b6001600160a01b039093165f908152600660209081526040808320868452825280832085905593825260079052919091209190915550565b60605f611061836111aa565b60010190505f8167ffffffffffffffff81111561108057611080611438565b6040519080825280601f01601f1916602001820160405280156110aa576020820181803683370190505b5090508181016020015b5f19016f181899199a1a9b1b9c1cb0b131b232b360811b600a86061a8153600a85049450846110b457509392505050565b6001600160a01b03821661110e57604051633250574960e11b81525f60048201526024016103d7565b5f61111a83835f610727565b90506001600160a01b038116156104bd576040516339e3563760e11b81525f60048201526024016103d7565b611151838383611281565b6104bd576001600160a01b03831661117f57604051637e27328960e01b8152600481018290526024016103d7565b60405163177e802f60e01b81526001600160a01b0383166004820152602481018290526044016103d7565b5f8072184f03e93ff9f4daa797ed6e38ed64bf6a1f0160401b83106111e85772184f03e93ff9f4daa797ed6e38ed64bf6a1f0160401b830492506040015b6d04ee2d6d415b85acef81000000008310611214576d04ee2d6d415b85acef8100000000830492506020015b662386f26fc10000831061123257662386f26fc10000830492506010015b6305f5e100831061124a576305f5e100830492506008015b612710831061125e57612710830492506004015b60648310611270576064830492506002015b600a83106102e75760010192915050565b5f6001600160a01b038316158015906107335750826001600160a01b0316846001600160a01b031614806112ba57506112ba8484610654565b806107335750505f908152600460205260409020546001600160a01b03908116911614919050565b6001600160e01b0319811681146106bb575f5ffd5b5f60208284031215611307575f5ffd5b813561064d816112e2565b5f81518084528060208401602086015e5f602082860101526020601f19601f83011685010191505092915050565b602081525f61064d6020830184611312565b5f60208284031215611362575f5ffd5b5035919050565b80356001600160a01b038116811461137f575f5ffd5b919050565b5f5f60408385031215611395575f5ffd5b61139e83611369565b946020939093013593505050565b5f5f5f606084860312156113be575f5ffd5b6113c784611369565b92506113d560208501611369565b929592945050506040919091013590565b5f602082840312156113f6575f5ffd5b61064d82611369565b5f5f60408385031215611410575f5ffd5b61141983611369565b91506020830135801515811461142d575f5ffd5b809150509250929050565b634e487b7160e01b5f52604160045260245ffd5b5f5f67ffffffffffffffff84111561146657611466611438565b50604051601f19601f85018116603f0116810181811067ffffffffffffffff8211171561149557611495611438565b6040528381529050808284018510156114ac575f5ffd5b838360208301375f60208583010152509392505050565b5f5f5f5f608085870312156114d6575f5ffd5b6114df85611369565b93506114ed60208601611369565b925060408501359150606085013567ffffffffffffffff81111561150f575f5ffd5b8501601f8101871361151f575f5ffd5b61152e8782356020840161144c565b91505092959194509250565b5f5f6040838503121561154b575f5ffd5b61155483611369565b9150602083013567ffffffffffffffff81111561156f575f5ffd5b8301601f8101851361157f575f5ffd5b61158e8582356020840161144c565b9150509250929050565b5f5f604083850312156115a9575f5ffd5b6115b283611369565b91506115c060208401611369565b90509250929050565b600181811c908216806115dd57607f821691505b6020821081036115fb57634e487b7160e01b5f52602260045260245ffd5b50919050565b634e487b7160e01b5f52603260045260245ffd5b634e487b7160e01b5f52601160045260245ffd5b5f6001820161163a5761163a611615565b5060010190565b6001600160a01b03858116825284166020820152604081018390526080606082018190525f9061167390830184611312565b9695505050505050565b5f6020828403121561168d575f5ffd5b815161064d816112e2565b5f81518060208401855e5f93019283525090919050565b5f6107336116bd8386611698565b84611698565b601f8211156104bd57805f5260205f20601f840160051c810160208510156116e85750805b601f840160051c820191505b818110156109a1575f81556001016116f4565b815167ffffffffffffffff81111561172157611721611438565b6117358161172f84546115c9565b846116c3565b6020601f821160018114611767575f83156117505750848201515b5f19600385901b1c1916600184901b1784556109a1565b5f84815260208120601f198516915b828110156117965787850151825560209485019460019092019101611776565b50848210156117b357868401515f19600387901b60f8161c191681555b50505050600190811b01905550565b818103818111156102e7576102e7611615565b634e487b7160e01b5f52603160045260245ffdfea2646970667358221220c45e63ec31855ab494d125e57c9119b7c496607673257889d35b4f80b79f0abc64736f6c634300081b0033","linkReferences":{}},"methodIdentifiers":{"approve(address,uint256)":"095ea7b3","balanceOf(address)":"70a08231","burn(uint256)":"42966c68","getApproved(uint256)":"081812fc","isApprovedForAll(address,address)":"e985e9c5","mint(address,string)":"d0def521","name()":"06fdde03","owner()":"8da5cb5b","ownerOf(uint256)":"6352211e","renounceOwnership()":"715018a6","safeTransferFrom(address,address,uint256)":"42842e0e","safeTransferFrom(address,address,uint256,bytes)":"b88d4fde","setApprovalForAll(address,bool)":"a22cb465","supportsInterface(bytes4)":"01ffc9a7","symbol()":"95d89b41","tokenByIndex(uint256)":"4f6ccce7","tokenOfOwnerByIndex(address,uint256)":"2f745c59","tokenURI(uint256)":"c87b56dd","totalSupply()":"18160ddd","transferFrom(address,address,uint256)":"23b872dd","transferOwnership(address)":"f2fde38b"},"id":43}